:100000000C9462000C948A000C948A000C948A0070
:100010000C948A000C948A000C948A000C948A0038
:100020000C948A000C948A000C948A000C948A0028
:100030000C948A000C948A000C948A000C948A0018
:100040000C9440060C948A000C94B0060C948A061A
:100050000C948A000C948A000C948A000C948A00F8
:100060000C948A000C948A000000000024002700F1
:100070002A0000000000250028002B0000000008D6
:10008000000201000003040700000000000000005F
:1000900000000000230026002900040404040404D6
:1000A0000404020202020202030303030303010227
:1000B00004081020408001020408102001020408F6
:1000C0001020E20611241FBECFEFD8E0DEBFCDBF67
:1000D00011E0A0E0B1E0E8E6F6E102C005900D9283
:1000E000A435B107D9F722E0A4E5B1E001C01D9223
:1000F000A532B207E1F710E0C2E6D0E004C02197D4
:10010000FE010E942C0BC136D107C9F70E944D0792
:100110000C94320B0C940000CF92DF92EF92FF927E
:10012000CF93DF93B0910102A0E08111AB2F8091BA
:10013000020290E0880F991FAC0140575F4FC090BA
:100140000702D0900802E0900902F0900A0230E025
:1001500020E0FA01C591D491E881B90190E080E0F6
:10016000EB23EA130AC02F5F3F4F6C157D058E0508
:100170009F0578F36FEF7FEFCB01DF91CF91FF9079
:10018000EF90DF90CF900895FC01538D448D252F83
:1001900030E0842F90E0821B930B541710F0CF9621
:1001A000089501970895FC01918D828D981761F053
:1001B000A28DAE0FBF2FB11D5D968C91928D9F5F6A
:1001C0009F73928F90E008958FEF9FEF0895FC0149
:1001D000918D828D981731F0828DE80FF11D858DFC
:1001E00090E008958FEF9FEF0895FC01918D228D8F
:1001F000892F90E0805C9F4F821B91098F73992714
:100200000895FC01A48DA80FB92FB11DA35ABF4FAB
:100210002C91848D90E001968F739927848FA68905
:10022000B7892C93A089B1898C91837080648C9359
:10023000938D848D981306C00288F389E02D808108
:100240008F7D80830895EF92FF920F931F93CF933A
:10025000DF93EC0181E0888F9B8D8C8D98131AC001
:10026000E889F989808185FF15C09FB7F894EE89E8
:10027000FF896083E889F989808183708064808345
:100280009FBF81E090E0DF91CF911F910F91FF9090
:10029000EF900895F62E0B8D10E00F5F1F4F0F7338
:1002A0001127E02E8C8D8E110CC00FB607FCFACFF3
:1002B000E889F989808185FFF5CFCE010E9401018F
:1002C000F1CFEB8DEC0FFD2FF11DE35AFF4FF082C4
:1002D0009FB7F8940B8FEA89FB8980818062CFCF2A
:1002E000CF93DF93EC01888D8823B9F0AA89BB896D
:1002F000E889F9898C9185FD03C0808186FD0DC058
:100300000FB607FCF7CF8C9185FFF2CF808185FF78
:10031000EDCFCE010E940101E9CFDF91CF91089589
:100320008DE591E00E94F50021E0892B09F420E0A1
:10033000822F089580E090E0892B29F00E9490019F
:1003400081110C940000089590E0FC01E458FF4FE7
:100350002491FC01E255FF4F3491FC01E656FF4F1A
:10036000E491EE23C9F0222339F0233001F1A8F4FF
:10037000213019F1223029F1F0E0EE0FFF1FEE5885
:10038000FF4FA591B4918FB7F894EC91611126C0FD
:1003900030953E233C938FBF08952730A9F0283035
:1003A000C9F0243049F7809180008F7D03C080918F
:1003B00080008F7780938000DFCF84B58F7784BDF6
:1003C000DBCF84B58F7DFBCF8091B0008F7780939A
:1003D000B000D2CF8091B0008F7DF9CF3E2BDACF25
:1003E000CF93DF9390E0FC01E255FF4F24918656B6
:1003F0009F4FFC0184918823D1F090E0880F991FD2
:10040000FC01E859FF4FA591B491FC01EE58FF4F54
:10041000C591D491623071F49FB7F8943C91822FCA
:10042000809583238C93E8812E2B28839FBFDF91B7
:10043000CF9108958FB7F894EC912E2B2C938FBF0A
:10044000F6CF3FB7F8948091550190915601A09155
:100450005701B091580126B5A89B05C02F3F19F050
:100460000196A11DB11D3FBFBA2FA92F982F882734
:10047000BC01CD01620F711D811D911D42E0660F0F
:10048000771F881F991F4A95D1F708958F929F92E1
:10049000AF92BF92CF92DF92EF92FF924B015C013D
:1004A0000E9421026B017C010E9421026C197D09CE
:1004B0008E099F09683E734081059105A8F321E0EC
:1004C000821A9108A108B10888EEC80E83E0D81EF0
:1004D000E11CF11C81149104A104B10429F7FF90DF
:1004E000EF90DF90CF90BF90AF909F908F90089546
:1004F000CF92DF92EF92FF920F931F93CF93DF93F0
:10050000CDB7DEB7C054D1400FB6F894DEBF0FBEF2
:10051000CDBF2FB7F8948091590190915A01A091C5
:100520005B01B0915C012FBF409103025091040226
:1005300060910502709106028C019D01041B150B50
:10054000260B370BB901A801403D574061057105E5
:1005500090F480910B02C05CDE4F0FB6F894DEBFC2
:100560000FBECDBFDF91CF911F910F91FF90EF9004
:10057000DF90CF9008958093030290930402A0939C
:100580000502B09306021092FE011092FD01109236
:10059000FC011092FB011092FA0162E08091FF01D0
:1005A0000E94F00161E070E080E090E00E9446026D
:1005B00061E08091FF010E94F00160E08091FF0105
:1005C0000E94A401809100028551823020F58BE2C7
:1005D00091E10197F1F762E08091FF010E94F00143
:1005E00080910C0290E08230910538F0880F991FBD
:1005F000880F991F05970197F1F7F89480E00E9402
:100600008C006F3F7F4F8F4F9F4F61F410920B0212
:10061000789480E0A0CF64E170E080E090E00E94F8
:100620004602D9CF81E00E948C006F3F7F4F8F4FF1
:100630009F4F61F38E010F5F1F4F6E018FEBC81A42
:100640008EEFD80A780180E00E948C00F701608369
:1006500071838283938381E00E948C00F70164831D
:10066000758386839783F8E0EF0EF11CEC14FD048C
:1006700051F7789430E020E0F801C080D180E2802A
:10068000F3804481558166817781FFEFCF16DF06C5
:10069000EF06FF0631F04F3F8FEF580768077807E6
:1006A00019F410920B02B5CFF90183E0F595E795A7
:1006B0008A95E1F7E650FE4F8081880FC416D50673
:1006C000E606F70610F180832F5F3F4F085F1F4F4C
:1006D0002832310589F64091FE012091FA0180917E
:1006E000FB01280F3327331F8091FC01280F311D98
:1006F0008091FD01820F932F911D992748171906AC
:1007000081F681E080930B0226CF8160DCCFAF922F
:10071000BF92CF92DF92EF92FF920F931F93CF93EE
:10072000DF936C017B018B01040F151FEB015E0150
:10073000AE18BF08C017D10759F06991D601ED91E5
:10074000FC910190F081E02DC6010995892B79F784
:10075000C501DF91CF911F910F91FF90EF90DF9036
:10076000CF90BF90AF900895089590E080E00895F5
:10077000FC0101900020E9F73197AF01481B590BAC
:10078000BC018DE092E00C9487038F929F92AF9210
:10079000BF920F931F93CF93DF93CDB7DEB7A1978F
:1007A0000FB6F894DEBF0FBECDBF19A2423008F4D9
:1007B0004AE08E010F5D1F4F842E912CB12CA12C8D
:1007C000A50194010E940A0BE62FB901CA01EA3083
:1007D000F4F4E05DD801EE938D01232B242B252B1F
:1007E00079F790E080E0109719F0CD010E94B803EE
:1007F000A1960FB6F894DEBF0FBECDBFDF91CF91AB
:100800001F910F91BF90AF909F908F900895E95CDA
:10081000E1CFCF93DF93EC0160E08E810E94A401D1
:1008200061E08E810E94A40160E08E810E94A4019B
:100830008BE891E00197F1F7DF91CF910895CF9286
:10084000DF92EF92FF920F931F93CF93DF936C0190
:100850007C0187E0E80EF11CD0E0C0E0062F10E03C
:10086000B8010C2E02C0759567950A94E2F7617085
:10087000F70181917F010E94A4012196C430D10526
:1008800079F7C601DF91CF911F910F91FF90EF9003
:10089000DF90CF900C940904CF92DF92EF92FF92F9
:1008A0000F931F93CF93DF93EC01F62E642F8C816F
:1008B0000E94A4018D818F3F19F060E00E94A40185
:1008C0000F2D10E08F8584FF25C06E0187E0C80ED4
:1008D000D11CF12CE12CB8010E2C02C07595679546
:1008E0000A94E2F76170F60181916F010E94A40100
:1008F000FFEFEF1AFF0A88E0E816F10461F7CE0176
:10090000DF91CF911F910F91FF90EF90DF90CF90EB
:100910000C940904B80184E0759567958A95E1F710
:10092000CE010E941F046F2DCE01DF91CF911F9148
:100930000F91FF90EF90DF90CF900C941F0440E058
:10094000682F8DE092E00C944C0481E00E949F049B
:100950008BE39FE10197F1F70895CF93DF93823006
:1009600029F490911C02986090931C0280932002BD
:100970001092210280E48093220280E1809323027E
:1009800080E58093240261E0809111020E94F001D1
:10099000809112028F3F19F061E00E94F00161E046
:1009A000809113020E94F001CDE0D2E09E012D5013
:1009B000324080911C0284FD0BC084E090E02196BF
:1009C0002817390744F461E08E810E94F001EECFD0
:1009D00088E090E0F4CF8BE39DE00197F1F760E0D1
:1009E000809111020E94A40160E0809113020E9494
:1009F000A401809112028F3F19F060E00E94A401CF
:100A000080911C0284FD34C063E08DE092E00E947E
:100A10001F04CBE4D6E4CE010197F1F763E08DE04B
:100A200092E00E941F042197F1F763E08DE092E0CD
:100A30000E941F0483E592E00197F1F762E08DE0E8
:100A400092E00E941F0480911C0280620E949F0419
:100A500084E080931D028CE00E949F040E94A50404
:100A600082E080931E0286E0DF91CF910C949F0478
:100A700080620E949F048BE496E40197F1F78091D5
:100A80001C0280620E949F0483E592E00197F1F7C7
:100A900080911C0280620E949F04D5CF9091200219
:100AA000891710F08FEF890FE82FF0E0E35FFD4F1B
:100AB000848980680C949F0441E00E944C0481E08A
:100AC00090E008954F925F926F927F928F929F92E3
:100AD000AF92BF92CF92DF92EF92FF920F931F934C
:100AE000CF936B017C01742EAC019B010E94050B1E
:100AF000882399F08EE191E0CF911F910F91FF90A3
:100B0000EF90DF90CF90BF90AF909F908F907F90AD
:100B10006F905F904F900C94B80346015701E89492
:100B2000B7F82FEF3FEF4FE75FE7C501B4010E9431
:100B3000050B81110DC02FEF3FEF4FE75FE7C501B8
:100B4000B4010E943B0918161CF482E291E0D4CF54
:100B50002FEF3FEF4FE75FE4C701B6010E94930A12
:100B600018161CF486E291E0C7CF2FEF3FEF4FE756
:100B70005FECC701B6010E943B0987FDF3CF20E07F
:100B800030E0A901C701B6010E943B0910E000E076
:100B900087FF0CC041E06DE28DE092E00E944C04C2
:100BA000F7FAF094F7F8F09401E010E0C0E060E0AC
:100BB00070E080E09FE37C1641F020E030E040E20E
:100BC00051E40E944009CF5FF6CFA70196010E9431
:100BD000CF084B015C010E94B2092B013C014AE0A5
:100BE0000E94C503080F191FCC23C9F1C301B2012C
:100BF0000E94E1099B01AC01C501B4010E94CE082D
:100C00004B015C0141E06EE28DE092E00E944C04F9
:100C10000F5F1F4FC15018F120E030E040E251E477
:100C2000C501B4010E94980A2B013C010E94B2093F
:100C30004B01B12CA12C4AE0C501B4010E94C503AF
:100C4000080F191FC501B4010E94E1099B01AC0105
:100C5000C301B2010E94CE084B015C01DBCFC80189
:100C6000CF911F910F91FF90EF90DF90CF90BF90A9
:100C7000AF909F908F907F906F905F904F9008956E
:100C80001F920F920FB60F9211242F933F938F93C1
:100C90009F93AF93BF938091590190915A01A09176
:100CA0005B01B0915C013091540123E0230F2D379B
:100CB00058F50196A11DB11D20935401809359014F
:100CC00090935A01A0935B01B0935C018091550110
:100CD00090915601A0915701B09158010196A11D24
:100CE000B11D8093550190935601A0935701B09385
:100CF0005801BF91AF919F918F913F912F910F908C
:100D00000FBE0F901F90189526E8230F0296A11D85
:100D1000B11DD2CF1F920F920FB60F9211242F93B5
:100D20003F934F935F936F937F938F939F93AF9373
:100D3000BF93EF93FF938DE591E00E940101FF9136
:100D4000EF91BF91AF919F918F917F916F915F9143
:100D50004F913F912F910F900FBE0F901F901895BC
:100D60001F920F920FB60F9211242F938F939F9380
:100D7000EF93FF93E0916D01F0916E018081E0911E
:100D80007301F091740182FD1BC090818091760106
:100D90008F5F8F7320917701821741F0E091760188
:100DA000F0E0E35AFE4F958F80937601FF91EF912B
:100DB0009F918F912F910F900FBE0F901F901895BC
:100DC0008081F4CFEDE5F1E01382128288EE93E0AA
:100DD000A0E0B0E084839583A683B78384E091E0AC
:100DE0009183808385EC90E09587848784EC90E004
:100DF0009787868780EC90E0918B808B81EC90E0E8
:100E0000938B828B82EC90E0958B848B86EC90E0C8
:100E1000978B868B118E128E138E148EEDE0F2E07E
:100E20001382128286E191E0918380838CE0848337
:100E30008FEF85838BE0868385E0878384E08087DE
:100E400083E0818782E08287138614861586168662
:100E5000178681E00E94AD04AAEFB1E08DE01596FF
:100E60008C93159786E116968C931697EBEBF0E032
:100E7000E4911796EC931797E7EAF0E0E49118965F
:100E8000EC93189740E85EE360E070E01D964D93A8
:100E90005D936D937C9350970895789484B58260A8
:100EA00084BD84B5816084BD85B5826085BD85B50E
:100EB000816085BD80916E00816080936E0010928C
:100EC0008100809181008260809381008091810007
:100ED0008160809381008091800081608093800098
:100EE0008091B10084608093B1008091B0008160F6
:100EF0008093B00080917A00846080937A00809122
:100F00007A00826080937A0080917A008160809379
:100F10007A0080917A00806880937A001092C100F4
:100F200082E00E94AD0462E08091FF010E94F00126
:100F30002FB7F8948091590190915A01A0915B01CB
:100F4000B0915C012FBF805D9740A109B1098093EA
:100F5000030290930402A0930502B093060287E374
:100F600080930C020E94A50480E00E944E058AE254
:100F700091E00E94B80360ED77E080E090E00E948D
:100F800046020E94A504C0E0D0E00E9478028823B7
:100F900041F0809100028C3009F462C048F48B303B
:100FA00001F1C12CD12C90ECE92E9FE7F92E43C022
:100FB00085518230B0F71091FC01612F70E0762FDF
:100FC000662766277F778091FD01682B90E080E09F
:100FD0000E94E1092DEC3CEC4CEC5DE30E94980A88
:100FE0005BC06091FC0170E090E080E00E94E1094C
:100FF0006B017C011091FD0117FF0AC0AC019B0140
:1010000060E070E080E89FEB0E94CE086B017C01FD
:101010001F70612F70E090E080E00E94E3092DECEA
:101020003CEC4CEC5DE30E94980AA70196010E94FB
:10103000CF086B017C010E947802882351F08091D7
:1010400000028B3030F08D3080F18551823008F411
:1010500074C0812C912C80ECA82E8FE7B82E43C051
:101060001091FC01612F70E090E080E00E94E109A6
:101070006B017C016091FD016F7070E090E080E099
:101080000E94E3092DEC3CEC4CEC5DE30E94980AD5
:10109000A70196010E94CF086B017C0117FFCBCFFF
:1010A000F7FAF094F7F8F094C6CF6091FB0170E086
:1010B00090E080E00E94E3092DEC3CEC4CEC5DE319
:1010C0000E94980A4B015C016091FA0170E090E087
:1010D00080E00E94E3099B01AC01C501B4010E94BC
:1010E000CF084B015C010E94A504A7019601C7012E
:1010F000B6010E94050B811108C0A5019401C5012C
:10110000B4010E94050B882351F180E00E944E0536
:1011100087E391E00E94B80360ED77E080E090E023
:101120000E944602209709F430CF0E949001882344
:1011300009F42BCF0E94000028CF6091FA01709132
:10114000FB0176276727762790E080E00E94E1097F
:101150002DEC3CEC4CEC5DE30E94980AC2CF80E0A1
:101160000E944E0584E491E00E94B80341E0C7016B
:10117000B6010E9462058AE491E00E94B80381E012
:101180000E944E058DE491E00E94B80341E0C50144
:10119000B4010E94620582E591E0BCCF5058BB27A4
:1011A000AA270E94E6080C94590A0E944B0A38F0BC
:1011B0000E94520A20F039F49F3F19F426F40C944F
:1011C000480A0EF4E095E7FB0C94420AE92F0E94CE
:1011D0006A0A58F3BA17620773078407950720F065
:1011E00079F4A6F50C948C0A0EF4E0950B2EBA2F28
:1011F000A02D0B01B90190010C01CA01A00111241D
:10120000FF27591B99F0593F50F4503E68F11A16C8
:10121000F040A22F232F342F4427585FF3CF469559
:1012200037952795A795F0405395C9F77EF41F167B
:10123000BA0B620B730B840BBAF09150A1F0FF0F45
:10124000BB1F661F771F881FC2F70EC0BA0F621F31
:10125000731F841F48F4879577956795B795F79521
:101260009E3F08F0B0CF9395880F08F09927EE0FB6
:101270009795879508950E941E0A08F481E00895C5
:101280000E9454090C94590A0E94520A58F00E9474
:101290004B0A40F029F45F3F29F00C94420A5111A7
:1012A0000C948D0A0C94480A0E946A0A68F39923E8
:1012B000B1F3552391F3951B550BBB27AA27621752
:1012C0007307840738F09F5F5F4F220F331F441F5F
:1012D000AA1FA9F335D00E2E3AF0E0E832D0915093
:1012E0005040E695001CCAF72BD0FE2F29D0660F80
:1012F000771F881FBB1F261737074807AB07B0E8C3
:1013000009F0BB0B802DBF01FF2793585F4F3AF0C8
:101310009E3F510578F00C94420A0C948D0A5F3F71
:10132000E4F3983ED4F3869577956795B795F7954E
:101330009F5FC9F7880F911D9695879597F9089536
:10134000E1E0660F771F881FBB1F621773078407D2
:10135000BA0720F0621B730B840BBA0BEE1F88F7E1
:10136000E09508950E94720A88F09F5798F0B92F6F
:101370009927B751B0F0E1F0660F771F881F991FCA
:101380001AF0BA95C9F714C0B13091F00E948C0AD6
:10139000B1E008950C948C0A672F782F8827B85FE6
:1013A00039F0B93FCCF3869577956795B395D9F722
:1013B0003EF490958095709561957F4F8F4F9F4F2C
:1013C0000895E89409C097FB3EF490958095709538
:1013D00061957F4F8F4F9F4F9923A9F0F92F96E981
:1013E000BB279395F695879577956795B795F111F6
:1013F000F8CFFAF4BB0F11F460FF1BC06F5F7F4F93
:101400008F4F9F4F16C0882311F096E911C07723A4
:1014100021F09EE8872F762F05C0662371F096E8AD
:10142000862F70E060E02AF09A95660F771F881F7C
:10143000DAF7880F9695879597F90895990F000820
:10144000550FAA0BE0E8FEEF16161706E807F90796
:10145000C0F012161306E407F50798F0621B730B31
:10146000840B950B39F40A2661F0232B242B252BB2
:1014700021F408950A2609F4A140A6958FEF811D55
:10148000811D089597F99F6780E870E060E00895F6
:101490009FEF80EC089500240A941616170618068C
:1014A0000906089500240A94121613061406050668
:1014B0000895092E0394000C11F4882352F0BB0FF9
:1014C00040F4BF2B11F460FF04C06F5F7F4F8F4F5C
:1014D0009F4F089557FD9058440F551F59F05F3F97
:1014E00071F04795880F97FB991F61F09F3F79F046
:1014F00087950895121613061406551FF2CF4695C8
:10150000F1DF08C0161617061806991FF1CF869549
:101510007105610508940895E894BB27662777272D
:10152000CB0197F908950E941E0A08F48FEF0895E1
:101530000E94AB0A0C94590A0E944B0A38F00E9490
:10154000520A20F0952311F00C94420A0C94480A98
:1015500011240C948D0A0E946A0A70F3959FC1F3BE
:10156000950F50E0551F629FF001729FBB27F00D51
:10157000B11D639FAA27F00DB11DAA1F649F6627A6
:10158000B00DA11D661F829F2227B00DA11D621FF5
:10159000739FB00DA11D621F839FA00D611D221FAF
:1015A000749F3327A00D611D231F849F600D211D93
:1015B000822F762F6A2F11249F5750409AF0F1F016
:1015C00088234AF0EE0FFF1FBB1F661F771F881F7F
:1015D00091505040A9F79E3F510580F00C94420A6B
:1015E0000C948D0A5F3FE4F3983ED4F3869577958B
:1015F0006795B795F795E7959F5FC1F7FE2B880F25
:10160000911D9695879597F908950E941E0A880B5B
:10161000990B0895A1E21A2EAA1BBB1BFD010DC058
:10162000AA1FBB1FEE1FFF1FA217B307E407F50792
:1016300020F0A21BB30BE40BF50B661F771F881F6E
:10164000991F1A9469F760957095809590959B0104
:10165000AC01BD01CF010895EE0FFF1F0590F4917D
:08166000E02D0994F894FFCF7E
:101668000000000023018703C4007001F500D300C7
:10167800E700000000005C058703B503B4036E6152
:101688006E00696E66006F76660053797374656DD7
:101698002053746172740053656E736F72204572C3
:1016A800726F720054656D703A0020430048756D82
:0416B8003A002500CF
:00000001FF
